:020000040800F2
:1000000000040020CD0100087504000871040008F8
:100010007304000843030008713100080000000069
:10002000000000000000000000000000912E000809
:1000300045030008000000003B0200083D2F0008B7
:10004000ED010008ED010008ED010008ED010008D8
:10005000ED010008ED010008ED010008ED010008C8
:10006000ED010008ED010008ED010008ED010008B8
:10007000ED010008ED010008ED010008ED010008A8
:10008000ED010008ED010008ED010008ED01000898
:10009000ED010008ED010008ED010008ED01000888
:1000A000ED010008ED010008ED010008ED01000878
:1000B000ED010008ED010008ED010008ED01000868
:1000C000ED010008ED010008ED010008ED01000858
:1000D000ED010008ED010008ED010008ED01000848
:1000E000ED010008ED010008ED010008ED01000838
:1000F000ED010008ED010008ED010008ED01000828
:10010000ED010008ED010008ED010008ED01000817
:10011000ED010008ED010008ED010008ED01000807
:10012000ED010008ED010008ED010008ED010008F7
:1001300000F002F800F03AF80AA090E8000C8244BF
:100140008344AAF10107DA4501D100F02FF8AFF29C
:10015000090EBAE80F0013F0010F18BFFB1A43F0A5
:1001600001031847D8300000F8300000103A24BFCF
:1001700078C878C1FAD8520724BF30C830C144BF0C
:1001800004680C607047000000230024002500264E
:10019000103A28BF78C1FBD8520728BF30C148BFEA
:1001A0000B6070471FB51FBD10B510BD00F093F870
:1001B0001146FFF7F7FF02F0DDFF00F0B1F803B4DE
:1001C000FFF7F2FF03BC00F0B5F800000B488047D2
:1001D0000B4880F308880B480047FEE7FEE7FEE780
:1001E000FEE7FEE7FEE7FEE7FEE7FEE7FEE70000CC
:1001F00005480649064A074B70470000512F000882
:10020000602B00203101000860250020602B0020B9
:10021000602700206027002018484FF0FF01017080
:10022000002080F309881648016881F30888154882
:100230004FF08051016062B6FEE772B6EFF30980BD
:1002400028B1203880E8F00F0F490968086000B530
:100250000E4880475DF804EB0D480E490A7802709D
:1002600009480D490A680260106890E8F00F2030D4
:1002700080F309884EF0040E62B6704722ED00E06C
:10028000CC00002004ED00E0C4000020610E000856
:100290006600002067000020C800002072B670478A
:1002A00062B67047EFF3108072B6704780F3108823
:1002B000704730BF704720BF7047B0FA80F070477A
:1002C00090FAA0F0B0FA80F0704790FAA0F0704772
:1002D000704770477047754600F028F8AE46050035
:1002E0006946534620F00700854618B020B5FFF751
:1002F0007FFFBDE820404FF000064FF000074FF0B1
:1003000000084FF0000B21F00701AC46ACE8C00933
:10031000ACE8C009ACE8C009ACE8C0098D4670473C
:100320000446AFF300802046FFF749FF00487047BE
:100330000025002001491820ABBEFEE72600020080
:100340007047FEE77047000004490A6822F0100277
:100350000A600A6802430A607047000000200240F9
:10036000034A116801F03801014311607047000031
:1003700000200240F0B5CA78002502F00F03D20633
:1003800001D58A7813430A784FF00F0E12F0FF0F51
:100390004FF001021CD004680F8802FA05F63740BE
:1003A000B74211D14FEA850C0EFA0CF724EA070781
:1003B00003FA0CF43C43CF78282F02D0482F02D008
:1003C00002E0466100E006616D1C082DE4D3046084
:1003D0000C88FF2C1ED944685FF0000606F1080760
:1003E00002FA07F50F882F40AF420FD14FEA860C73
:1003F0000EFA0CF7BC4303FA0CF73C43CF78282FD6
:1004000000D14561CF78482F00D10561761C082EB8
:10041000E4D34460F0BD4161704701617047000062
:1004200008B50121102002F0EFFB0121082002F0A5
:10043000EBFB0121042002F0E7FB4FF40050ADF884
:10044000000010208DF8030003208DF8020069469B
:100450000548FFF78FFF4FF44040ADF800006946B4
:100460000248FFF787FF08BD00100140000C014063
:10047000FEE7FEE770470907090E002806DA00F0DC
:100480000F0000F1E02080F8141D704700F1E0201B
:1004900080F800147047704702480068002800D0B8
:1004A000004770472400002010B5044600F0B2F861
:1004B000434900200A2208704249087042490870E6
:1004C0004249086042490860424908704249087040
:1004D000424908704249087042490968B1FBF2F18B
:1004E000414A1160414A116831B14149096819B165
:1004F000126801C1521EFCD13E4908603E490860A5
:100500003E4908603E4908603E4908603E4908602F
:100510003E4908603E49087001F078FA01F00AFB94
:10052000204600F0DDFD2088002847D1204601F05C
:100530007DF82088002841D1204601F083F82088EA
:1005400000283BD1204601F017F92088002835D13A
:10055000204601F081FA208800282FD1204601F0A2
:10056000E3FB2088002829D1204601F0F9FD2088EE
:10057000002823D1204600F0CDFF208800281DD17F
:10058000204600F083FE2088002817D1204602F084
:1005900087F92088002811D1204601F03FFD2088EE
:1005A00000280BD1204602F0CFF92088002805D181
:1005B00000F094FDBDE81040FFF76DBF10BD0000D6
:1005C000380000203900002072000020C400002004
:1005D000C80000206600002067000020680000209E
:1005E000780000201032000874000020EC31000870
:1005F000E8310008180000201C0000202000002026
:1006000024000020280000202C00002030000020C2
:10061000A6000020044805490068096800EB810035
:100620000349001F08607047E8310008EC310008FA
:10063000CC00002005480078012805D1044908783D
:10064000FA2801D2401C08707047000039000020D1
:10065000380000201A4810B5007801282FD1FFF784
:1006600021FE184A0446117829B1491E11F0FF00F5
:10067000107022D103E0BDE81040FFF717BE12480A
:100680000078D0B901F0B0F910490870104900EBBA
:10069000400051F820100F4801600F480068814267
:1006A0000BD051F8900F401C08600C480168491CA1
:1006B00001600B494FF0805008602046DBE710BD19
:1006C0003900002038000020720000206700002060
:1006D00040210020C8000020C40000209C00002011
:1006E00004ED00E0164810B50078002826D1154822
:1006F0000078002822D1FFF7D5FD044601F074F9F7
:1007000011490870114900EB400051F820001049D0
:1007100008601049096888420BD050F8901F491CA6
:1007200001600D480168491C01600C494FF0805080
:1007300008602046BDE81040FFF7B8BD10BD0000BE
:1007400038000020720000206700002040210020B7
:10075000C8000020C40000209C00002004ED00E040
:1007600070B504460E48007810B146F6625015E0A8
:100770000C480078012802D045F689600EE00A4D49
:100780002878FA2802D345F2092007E0FFF78AFD0E
:100790002978491C2970FFF789FD0020208070BD51
:1007A00038000020390000207200002070B5044697
:1007B0001348007810B146F665501EE011480078E5
:1007C000012802D045F6896017E00F4D287860B106
:1007D000FFF768FD2978491E11F0FF01297007D045
:1007E000FFF764FD46F6635007E046F6645004E008
:1007F000FFF75CFDFFF776FF0020208070BD000052
:1008000038000020390000207200002070B50F4D24
:100810000446287818B145F68A60208070BD01F042
:10082000E3F80B4908700B4908700B4900EB4000D6
:1008300051F8200009490860094908600120287022
:10084000FFF7EAFC43F69920E7E7000039000020B3
:10085000670000206600002040210020C800002022
:10086000C400002070B50646FFF71CFD2149002595
:100870000D6021490D8021490D8021490D602149DC
:100880000D6021490D6021490D81FFF70FFDFFF734
:1008900009FD1F490C6816E0FFF704FDA567C4F8C1
:1008A000A850C4F89050A4F88C50A4F88E5001467B
:1008B000C4F89C50C4F8A0507020C4F89850055358
:1008C000D4F8B8400846FFF7F1FC002CE4D1FFF75C
:1008D000E9FC10490C6803E0FFF7E4FCA585A46976
:1008E000FFF7E4FC002CF7D101F012FF02F0FAF858
:1008F000358070BD4C00002046000020860000209E
:1009000098000020AC000020B4000020342100201A
:10091000A00000206C00002002480068002800D0E1
:1009200000477047280000202DE9FF4F83B00446A0
:100930006148DDE91785DDE910960078DDF854A0FF
:10094000139F10B147F24A102AE04CB1059850B1FC
:1009500066B15A48006887420BD246F630601FE005
:1009600047F2AD101CE047F24F1019E046F62F6039
:1009700016E01298B84202D346F6316010E046F213
:100980007320B9F1200F0BD25FEA090103D0B9F14E
:100990001F0F02D008E04A4900E04A498C4203D0C8
:1009A000288007B0BDE8F08F204601F0E9FB4FF04A
:1009B000000BA5F800B05FEAC8700AD05FEA887043
:1009C00007D5304600215A4601E004C0491CB9420F
:1009D000FBD31298CDE9007806EB8005DDE905012F
:1009E0002B46324600F004FA0599A1620699E162AD
:1009F0000499216284F83790C4F854A0A56020605F
:100A00005FEA0A003AD0A0651698A7636662606044
:100A1000A4F83C800020594604EB8002401CD167BA
:100A200010F0FF00F8D004F16400149900F058FEB3
:100A3000204600F053F8FFF735FC234D2978491C78
:100A40002970FFF733FC94F8370000F0E5FF2046EB
:100A500001F0B6F8204601F055FB1C490888401CFF
:100A600008801B48007801281AD0FFF71BFC297862
:100A7000491E11F0FF01297003D00CE015480068F1
:100A8000C1E71549098831B1FFF710FC07B0BDE88F
:100A9000F04F01F0F3B807B0BDE8F04FFFF706BC28
:100AA000FFF700FC2978491E2970FFF7FFFB07B00C
:100AB000BDE8F04FFFF716BE380000200C320008EA
:100AC00074200020B41F002072000020A400002029
:100AD0003900002074000020440000200249096809
:100AE000002900D0084770471800002070B5044660
:100AF0003D480E46007810B147F24E100AE03B48E0
:100B0000844202D147F24C1004E03948844203D1B8
:100B100047F24D10088070BD2CB9FFF7C3FB354973
:100B20000C68FFF7C3FBFFF7BDFB334D2978491C69
:100B30002970FFF7BBFB94F8360008283ED2DFE8A7
:100B400000F004080C0C1C080C0C204601F06CF89A
:100B500013E0204601F0C0FD0FE0204601F0BCFD8F
:100B600094F83400072808D2DFE800F007040704EF
:100B700004040400204600F0AAFE04F1640000F022
:100B800095FD204600F03EF8204601F0CDFA1B49C5
:100B90000888401E0880204601F0F2FAFF2084F801
:100BA0003600FFF77FFB2978491E2970FFF77EFB8F
:100BB00000203080BDE87040FFF794BDFFF772FB66
:100BC0002978491E11F0FF01297007D10C490988C5
:100BD00021B1FFF76BFB01F051F801E0FFF766FB75
:100BE00046F62D60308070BD38000020B41F002014
:100BF00074200020C400002072000020A400002007
:100C00004400002002490968002900D008477047C5
:100C10001C00002002490968002900D008477047DD
:100C2000200000202DE9F0478246494814461E4620
:100C30000078894610B146F2AE1006E0080006D0F2
:100C4000B1F5004F03D045F62560188037E0002746
:100C500004B12760FFF726FB3E4D02462868D0F816
:100C60004480B8F1000F18D0A8F10108C0F8448002
:100C70000CB1006C20602868016C4942C0F8A410D7
:100C8000D0F8A8308B4201D2C0F8A8101046FFF768
:100C90000DFB37804046BDE8F0875FEA094005D587
:100CA0001046FFF703FB46F2B01007E02A48017830
:100CB00039B11046FFF7FAFA46F66350308000204B
:100CC000E9E78046012088F800001046FFF7EEFAB9
:100CD000002153460722084600F05AFDFFF7E2FACA
:100CE00098F80010491E88F80010FFF7DFFAFFF7A8
:100CF000F9FCFFF7D7FA296891F8352032B1012ABB
:100D000014D0032A18D046F62E6119E064B1096C9C
:100D1000216029680A6C5242C1F8A420D1F8A83099
:100D2000934201D2C1F8A82037800AE00CB1096CC7
:100D3000216046F2A91103E004B1276047F2D921EE
:100D4000318029684C6CFFF7B1FA2046A3E7000018
:100D500038000020C4000020720000202DE9F0417E
:100D60000546214816460F4600781C4610B147F24A
:100D7000591007E046F2D52027B11EB1FFF792FACD
:100D80001DB104E01880BDE8F08118490D684FF0EE
:100D90000008296841B195F83C10C9070DD0FFF74C
:100DA00085FA0020696A14E0FFF780FAC7F800802E
:100DB00047F25210C6F8008007E0FFF777FAC7F84D
:100DC000008047F25410C6F800802080DBE7401C0A
:100DD000091D0A68002AFAD03860A96B081A306029
:100DE000A4F80080CFE7000038000020C4000020F5
:100DF00010B5029C02EB84024FF0807442E90204B9
:100E0000164842F80C0C4FF0123042F8100CA2F1C8
:100E100014004FF0023240E903134FF0113140F853
:100E2000101CD10040F8141C4FF0093140F8181C78
:100E3000910040F81C1C4FF007314FF0033440F88C
:100E4000201C610040F8241C4FF0053140F8281D9B
:100E50005100C0E9092440F8041D10BD0124000818
:100E60000B4810B5006800B180470A480A490022C3
:100E700000680968884207D0D0F898305B4240F893
:100E8000943F846823448360C1F8982010BD00001B
:100E90002C000020C4000020C80000202DE9F041F3
:100EA000074626480E461546007810B147F27520D1
:100EB00030E0234C207810B146F663502AE046B16A
:100EC000022E06D0042E05D0082E02D045F625604D
:100ED00020E0EFB1FFF7E6F92178491C2170FFF718
:100EE000E5F9DFF8608001212B46D8F80000324692
:100EF00080F83610394601F083FB288868B1FFF787
:100F0000D1F92178491E2170BDE8F041FFF7CEB933
:100F100047F27E201080BDE8F081D8F8000000F094
:100F200083FEFFF7BFF92178491E2170FFF7BEF954
:100F3000FFF7D8FB00202880EDE7000038000020F4
:100F400072000020C40000202DE9F0474B4EDDE97F
:100F50000854367816B147F2752088E0DFF820A1F2
:100F60009AF8006016B146F6635080E015F00E0660
:100F700047F27E2945F6256705D0022E03D0042EC0
:100F800005D0082E06D113B90AB901B9F0B335F06E
:100F90001E0C02D02780BDE8F087C5F3001547F28C
:100FA000792C47F278284FF47A7735B142F20F75F1
:100FB000A94211D9A4F800C0EDE7BB4202D347F221
:100FC0007B2054E03B2A02D947F27A204FE03B29AC
:100FD000F0D8632802D804E0B84202D3A4F8008015
:100FE000D9E7284D4FF4FA7CC1EB01112D68BCFB09
:100FF000F5FC63446B43B3FBF7F34FF4616778434D
:1010000000EB8100104400FB053700E031E087B3BE
:10101000FFF748F99AF800105546491C8AF8001065
:10102000FFF744F9DFF8608001212346D8F800007B
:10103000324680F83610394601F0E2FA208840B195
:10104000FFF730F92978491E2970BDE8F047FFF70E
:101050002DB9D8F8000000F0E7FDFFF723F9297853
:10106000491E2970FFF722F9FFF73CFB0020208082
:1010700091E7FFE7A4F800908DE70000380000201A
:101080007200002010320008C400002000B585B0B6
:1010900000F01CF8002101AB04AA0846009183E887
:1010A000070007480749002300781A4600EB400074
:1010B00001EB8001044800F01DF905B000BD0000FF
:1010C00066000020402100205449434B024800683C
:1010D000002800D000477047300000207047000013
:1010E000034A00211160034A11800180704700000B
:1010F00050000020540000202DE9F0479A46904609
:101100000D460446089FFFF7CDF85FEA080120D09E
:10111000012907D0B1F5004F1BD06FF4004218EB46
:10112000020F11D1216AA943C4E9081A218A04F1E6
:1011300008064FF0000979B1374D2978491C29700C
:10114000FFF7B4F836683FE0FFF7B0F845F62560E2
:101150005EE0216A2943E7E7FFF7A8F8A7F80090C7
:10116000206ABDE8F08790F88810766801F00F01DA
:10117000012918D002291ED004290AD008290DD02F
:10118000FFF790F82978491E11F0FF01297033D03C
:101190003AE0216AD0F88020114009E0216AD0F8B5
:1011A000802011400BE0D0F88010236A0A46994352
:1011B0008A4205D007E0D0F88010226A914311B12D
:1011C000524600F02DF816B1B0680028CBD1FFF7D9
:1011D00069F82978491E2970FFF768F85FEA084026
:1011E00001D4FFF77FFAFFF75DF8246AFFF75EF896
:1011F000A7F800902046B4E70849098821B1FFF715
:1012000055F800F03BFD01E0FFF750F843F6FF20F2
:1012100038800020A5E70000720000204400002074
:1012200070B50025C0F8841080F8355080F834502F
:101230000446026490F8360008280ED2DFE800F079
:101240000D0D04040D0D0A0A204601F06DF884F816
:10125000365002E0042084F836002046BDE8704095
:1012600000F035BB074C084DFFF71CF82168491CFE
:1012700021602968491C2960FFF718F8FFF70CF96D
:10128000F2E70000340000208800002000B50E4A7C
:1012900089B0002111600B2205910691CDE907204C
:1012A0000A480B4A0B4B006812681B680292CDE992
:1012B00003011F20CDE900030023074A07A10C48C2
:1012C000FFF732FB09B000BD34000020D031000828
:1012D000CC310008C83100086512000875432F4F53
:1012E000532D4949492049646C65205461736B0052
:1012F000B41F00202DE9F05F1E46DDE90AAB9046E1
:101300000F4681460D9CFEF7CDFF05461C481D4A41
:101310000188128891422BD2491C89B201801A4857
:1013200002888A4200D2018018490868C0F80090FB
:10133000C0E902780682C0F814A0A0F818B00C9A90
:10134000C2614068086012480121018111490160B1
:101350004160002000F060FB0F48007808B10F49A1
:101360000870002020802846BDE8F05FFEF79EBF91
:101370000B490888401C088044F25360F2E70000E3
:1013800044000020D8310008460000203C00002026
:10139000402100207420002066000020680000200A
:1013A000480000203EB5364C364B02A92068026842
:1013B000D51A9A4245D015DC334BD2182DD0334B79
:1013C000D21822D0324BD21832D0324BDA4208D166
:1013D000C269CDE90021038B028AC168806800F0F0
:1013E0002DFF3EBD2C4AAA181ED02C4BD21824D05B
:1013F0002B4BDA42F5D1C269CDE90021038B028A79
:10140000C168806800F034FB3EBD0091028BC36967
:1014100041698068FFF770FE3EBD018BC26980683C
:1014200002AB00F08DFC3EBD806800F08BFF3EBD3E
:10143000018BC269806802AB1FE0806801F076F81A
:101440003EBD18481849007800EB400001EB8000D1
:1014500000F038FC206802AB0021C269134800F09C
:10146000DBFF13480168491E0160E9D111490022E0
:1014700002AB0968016011460F4800F0CDFF3EBD88
:10148000400000205449434BADBAB2BE0DF90BFAEF
:10149000F2F8F7FF0006F6FF00F7FDF700FFEFFF99
:1014A00003FE0FFE68000020402100208023002062
:1014B000C0000020BC00002040240020124C134D2E
:1014C000FEF7F0FE0646208878B13046FEF7EEFEC5
:1014D000FFF768FFFEF7E6FE296849682960218862
:1014E000491E2180FEF7E2FEEAE70948002101815A
:1014F00001604160084600F09FFA3046FEF7D6FED4
:10150000FFF7F0F8DBE70000440000204000002077
:1015100040210020F0B52F492F4D89B000220A80CC
:10152000296831B12D4E3188022905D244F2546127
:1015300035E044F2526132E029490023294F0A6024
:10154000296801F1200410E041F8087B5B1C41F898
:10155000082B9BB241F8042C21F8102B41F80C2CDD
:1015600021F8082C41F81C4C2034B6F800C0634523
:10157000EAD32B6841F81C3C1B490B601B490B60EC
:101580001B490A801B490A801B490B6853B11B4B3E
:101590001B4D1C682D68AC4207D244F25661018095
:1015A00009B0F0BD44F25561F9E7032405920692B3
:1015B000CDE907401868134B09681B68CDE90302A1
:1015C0000092CDE9011300230F4A10A11648FFF73E
:1015D000ABF9E5E748000020D4310008D831000815
:1015E0004C0000204E4F4E453C00002040000020A3
:1015F0004400002046000020DC310008E4310008EF
:101600000C320008E0310008BD14000875432F4F6C
:10161000532D49494920495352205175657565201C
:101620005461736B0000000074200020034A002105
:101630001160034A118001807047000058000020AB
:101640005C000020F0B5164C216859B1154E318868
:1016500059B189B2491E22688FB2002502F11003E8
:1016600029460EE045F21E7118E045F21D7115E0A5
:10167000E2E802316D1C22F8081BADB242F8041CEE
:101680001033BD42F4D3116051601181D160064A1C
:101690002368136033889380D18011810180F0BD6D
:1016A000F4310008F03100083421002010B54289DF
:1016B00092B10A4903680C681C6043680B60CB88D0
:1016C00044891B1BCB808B88448923448B80002159
:1016D0004181818101604160104610BD34210020AC
:1016E00001810021418181810160416070470000DA
:1016F000F0B54489DDE905E70589AC4202D346F23D
:1017000093501EE01B4DAE88CEB12C68761ED4F8E7
:1017100000C0C5F800C0AE80EE88761CB6B2EE8080
:10172000B5F808C0B44500D22E814689002556B1CF
:10173000DB060ED403681C60046025600CE045F2F3
:101740001D703880F0BD0460012344604381256032
:1017500005E043682360446043895B1C43818689BC
:1017600043899E4200D2838161602281C4F80CE0EB
:101770003D80F0BD34210020034A00211160034A5E
:10178000118001807047000060000020640000208C
:101790002DE9F041114D07460C46286800261946F0
:1017A00080F8342080F8356000F096FC64B1FC606D
:1017B00004F1080601223946286800F011F839467C
:1017C000304600F057F802E02868C68706632046D6
:1017D0002968BDE8F04100F01BB80000C4000020FB
:1017E00010B5C2870024234601630EE04B6041F828
:1017F000103B641C41F8103BA4B241F80C3C21F8AA
:10180000083C41F8043C41F8180C9442EED310BD5A
:1018100038B14268C1F8BC2081688968096AC16131
:10182000704791F83400022803D0072803D004A0A1
:1018300002E004A000E005A0C1F8BC007047000071
:10184000200000005461736B205100005461736BE1
:101850002053656D0000000005A2C1F8BC2081681E
:1018600011B18968096A00E001A1C16170470000F7
:101870002000000030B58A68002392F837400289C2
:101880001AB1521C028102680BE0012202814B60F6
:101890000B60016014E0956895F83750A54203D8B5
:1018A0005268002AF7D107E032B1146854B1C1E997
:1018B00000426160116030BD4B6042680A60516057
:1018C000416030BD1160C1E90032016030BD70B5CA
:1018D0000646C48F056B07E0E8682946083000F02B
:1018E00009F8641EA4B22035002CF5D10020F08741
:1018F000306370BD10B502890023012A0BD00A683D
:1019000062B14C6874B1546022600289521E028137
:101910004B600B6010BD03604360F6E74A681360DC
:101920000260F2E753604260EFE7F8B50C46064606
:1019300091F836100025069808293BD2DFE801F01F
:101940003A3A04043A3A202094F83410032911D08A
:10195000E265A4F86030206436B12046FFF7B7FF97
:1019600021463046FFF778FF204600F0DDFC84F882
:1019700036501BE000902146304600F022F8EBE79D
:1019800094F83410032916D0E265A4F8603020647E
:10199000204600F0A1FE36B12046FFF798FF214611
:1019A0003046FFF759FF042084F8360084F835509C
:1019B00084F83450F8BD00902146304600F001F81C
:1019C000E6E770B50C6B049DC98F0AE0E6688642B5
:1019D00004D1C4E904022383E56170BD491E89B2C4
:1019E00020340029F2D170BD10B50024064802E071
:1019F0002034E4B2001D01680029F9D00846FEF742
:101A00005CFC2044C0B210BD14000020014900203D
:101A1000086070471400002000F01F0241090120F7
:101A2000C2F11F029040034A52F82130034342F8AA
:101A3000213070471400002000F01F0241090120EE
:101A4000C2F11F029040034A52F82130834342F80A
:101A50002130704714000020034A00211160034A1E
:101A600011800180704700006C0000207000002091
:101A70002DE9FF4F83B01F46DDE9109A93460646D5
:101A8000FEF710FC294C2178491C2170FEF70EFC52
:101A9000358A06F108001DB1B90525D5006831E089
:101AA000F80601D4002300E01023CDE9009A5A463D
:101AB00006F120000499FFF71BFEFEF7F3FB2178E7
:101AC000491E11F0FF01217009D11949098831B16E
:101AD000FEF7ECFB07B0BDE8F04F00F0CFB807B061
:101AE000BDE8F04FFEF7E2BB006801255B46D0E998
:101AF0000181CDF800903046049AFFF716FF6D1E65
:101B00004046ADB2002DF1D1FEF7CCFB2178491E45
:101B10002170FEF7CBFB380401D4FEF7E3FD002172
:101B2000AAF8001007B0BDE8F08F00007200002096
:101B3000440000200020074B014600BF00EB40029C
:101B400003EB8202401C11811160C0B25160202859
:101B5000F4D370474021002010B5044690F83700B8
:101B6000FFF75AFF074994F8370009788842204662
:101B700003D1BDE8104000F023B8BDE8104000F0EC
:101B800003B800006600002090F837100B4A01EB04
:101B9000410102EB810100220B8943B15B1C0B81E7
:101BA0000B68C0E903320A681061086070470123BE
:101BB0000B81C260026108604860704740210020CC
:101BC00090F837100A4A01EB410102EB8101002233
:101BD0000B893BB15B1C0B81C2604A680261D0601B
:101BE0004860704701230B81C26002610860F7E71B
:101BF0004021002010B50289002A14D0012A12D0F9
:101C00000021022A07D0D0E90024D3681961C2E973
:101C10000314E26005E0D0E90023C2E90313C3E93D
:101C20000321C0E9003210BD70B5054690F83700B9
:101C3000114900EB400001EB8001D5E903020024CB
:101C400042B10B895B1E0B81D06090B102612C61A7
:101C5000EC6070BD28B10A89521E0A8104610860D7
:101C6000F5E70C810C604C6095F83700FFF7E4FE57
:101C7000EDE74A60EBE700004021002010B5FEF7D9
:101C800011FB0B4A002111700B4A0A49116051F8EF
:101C9000902F521C0A6009490A68521C0A60084ABF
:101CA0004FF080511160BDE81040FEF7FFBA000010
:101CB0006700002074200020C80000209C00002045
:101CC00004ED00E070B5044613480078012822D1E5
:101CD000FEF7E8FA2168054641B11048814218D064
:101CE0008A6D3AB1521E8A6513D103E0BDE8704097
:101CF000FEF7DCBA208902280BD30948007840B9E6
:101D00002046FFF777FF2068416D09B9054909684A
:101D100081652846EAE770BD78000020B41F0020E6
:101D20007200002074000020034A00211160034A61
:101D300011800180704700007C000020800000209E
:101D40002DE9F84F1E46904689460446FEF7AAFA4A
:101D50000146208A04F108074FF0000B78B1DFF844
:101D600090A008469AF80020521C8AF80020FEF73E
:101D70009DFA5FEA895018D53D893F6822E0256ABF
:101D8000681C0AD06D1CC4E908580846FEF78EFA94
:101D9000A6F800B02846BDE8F88F0846FEF786FA98
:101DA00046F6C55030800020F5E73F680125002346
:101DB000B9687F681A462046CDF80080FFF7B5FD68
:101DC0006D1EADB2002DF2D1246AFEF76BFA9AF8BF
:101DD0000020521E8AF80020FEF768FA5FEA0940E8
:101DE00001D4FEF77FFCA6F800B02046D3E7000040
:101DF00072000020784C08B52068784E450004E059
:101E000028466A460021FFF749F830780128F7D1C3
:101E10006846FEF727FD724822680168914204D99E
:101E2000B1FBF2F15FEA010903D101680A20B1FBBD
:101E3000F0F9DFF8B08142F2107A00264FF0000B83
:101E4000FEF730FA6849694C0A6822600E60FEF7B6
:101E50002DFA6748236802689A422BD96548824266
:101E600002D25046012115E06348824203D24FF46A
:101E70007A700A210EE06148824202D26420014653
:101E800008E05F48824203D20A204FF47A7101E0F1
:101E900001205146B2FBF1F15843B0FBF1F1AAEB3E
:101EA0000100584980B2088057490A88824204D20A
:101EB000088002E05349A1F800A0FEF72DFD0024A0
:101EC000FEF7F0F9D8F8005024E000BFFEF7EAF979
:101ED0004E4F3978491C3970FEF7E8F9D5F89C0067
:101EE000C5E92760FEF7DEF93978491E11F0FF01D8
:101EF000397007D14649098821B1FEF7D7F9FFF7B4
:101F0000BDFE01E0FEF7D2F955F8A00F0444FEF73C
:101F1000C9F9AD69FEF7CAF9002DD7D1F4B135483A
:101F2000844202D25546012015E03348844203D250
:101F30004FF47A750A200EE03048844202D26425BC
:101F4000284608E02E48844203D20A254FF47A70CE
:101F500001E001255046B4FBF0F701E00025012720
:101F6000FEF7A0F9D8F800401CE000BFD4F8A000AC
:101F70006843B0FBF7F080B2504500D95046A4F852
:101F80008C00B4F88E10814201D2A4F88E0004F1C6
:101F9000AC026B46111D2046FEF7E0FEFEF782F90B
:101FA000D4F8B840FEF782F9002CDFD11948017847
:101FB000012903D106706846FEF754FC1649CBF19F
:101FC00000000A68824200D208606A460021484642
:101FD000FEF764FF32E70000FC31000894000020A7
:101FE00010320008A000002088000020900000208F
:101FF0008C000020801A060000093D00005A620291
:102000000084D71784000020860000207200002082
:1020100044000020820000209800002030B51D4AB6
:1020200089B0002111601C4A11601C4A11601C4AD1
:1020300011701C4A11701C4A136843B11B4B1C4D94
:102040001C682D68AC4205D246F62C6108E046F6C5
:102050002B6105E0174C25781F2D04D346F62A6125
:10206000018009B030BD032505910691CDE90750E7
:1020700011481B6812680068CDE90120CDE90331E1
:102080002078009000230D4A0DA11248FEF74CFC69
:10209000E7E7000088000020900000208C0000206E
:1020A000940000208200002000320008083200085E
:1020B0000C320008F831000804320008F51D000851
:1020C00075432F4F532D494949205374617420544F
:1020D00061736B00C022002038B50446022531B17F
:1020E0006B46022200F08CFABDF8000028B184F89B
:1020F00036502046FFF798FD38BD032084F836009F
:10210000F7E70000074B0022C0F8B420196829B196
:10211000C0F8B810C1F8B40018607047C0F8B82013
:10212000FAE70000A0000020D0E92D2100234AB1E9
:1021300081B1C2F8B810C1F8B420C0F8B830C0F806
:10214000B4307047054A116009B1C1F8B430C0F825
:10215000B8307047C2F8B830F1E70000A0000020A6
:10216000044A00211160044A1180044A1160018070
:1021700070470000A0000020A40000209C00002068
:1021800070B50025056085604560C56005614561E5
:102190000446856126A0C4E907506562A562E56230
:1021A0002563E5872564E565A4F86050002104F106
:1021B0006400FFF795FA6567A567C4F88050A4F836
:1021C00088500020C4F8845004EB8001401CCD6787
:1021D00010F0FF00F8D06564C4F8A450C4F8A8500B
:1021E000A56384F88A50C4F8B050C4F8AC50A587F1
:1021F0004FF00040C4E9120525656565A565A4F8A2
:102200008C50A4F88E50C4F89050C4F89450C4F880
:102210009850C4F89C5004F8345F20206570A57075
:10222000E07044F8805F04A0C4E9015070BD000074
:102230003F5461736B000000200000002DE9FC5F3B
:102240009946DDE90C7692468B460546FEF72AF85C
:10225000324C2178491C2170FEF728F80DB930481E
:1022600005680020308095F83600DFF8B88008282F
:102270003CD2DFE800F004041E1E04041E1ECDE95B
:1022800000764B465246594605F16400FFF730FA96
:10229000FEF708F82178491E11F0FF01217021D1C5
:1022A000B8F80010F1B1FEF701F8BDE8FC5FFFF7E8
:1022B000E5BC95F834000228E1D153465A46294638
:1022C00000200097FFF731FBFDF7ECFF2178491E56
:1022D0002170FDF7EBFF5FEA09401CD4BDE8FC5F0D
:1022E000FEF700BABDE8FC5FFDF7E0BFFDF7DAFFDF
:1022F0002178491E11F0FF01217007D1B8F80010B4
:1023000021B1FDF7D3FFFFF7B9FC01E0FDF7CEFFE8
:1023100046F62D603080BDE8FC9F00007200002072
:10232000C40000204400002010B5044600F0D4F999
:1023300094F83600400704D42046BDE81040FFF76B
:102340000BBC10BD70B50D460446FDF7ABFF002673
:102350002E8094F8361008294AD2DFE801F00404F0
:1023600004040A23333DFDF7A1FF47F253102880F0
:1023700024E0224D2978491C2970FDF797FF94F835
:102380008A00401E10F0FF0084F88A0004D184F80F
:1023900036602046FFF7C8FFFDF784FF2978491E05
:1023A000297009E094F88A10491E11F0FF0184F8A1
:1023B0008A1001D1012118E0FDF778FFBDE87040D7
:1023C000FEF790B994F88A10491E11F0FF0184F8C5
:1023D0008A10F1D1022108E094F88A10491E11F008
:1023E000FF0184F88A10E7D1032184F83610E3E76F
:1023F000FDF75CFF46F62D60288070BD720000205E
:10240000044808B50068FEF705FC69460020FEF7A1
:102410006DFB08BDC40000202DE9F84F9846154615
:102420008A460646FDF73EFF3D4C2178491C217047
:10243000FDF73CFF0EB93B48066800203A4F356473
:10244000A8F8000096F8360046F6C55908284ED27E
:10245000DFE800F02626222226262222FDF726FF8C
:10246000FFF70CFC02E000BFFDF720FFA8F800908A
:102470000020BDE8F88F6D1C7564FDF713FF21780F
:10248000491E11F0FF0121702ED1398861B3FDF78B
:102490000DFFFFF7F3FB40E096F8340007280ED05D
:1024A000756C681CE7D1FDF7FDFE2178491E11F01F
:1024B000FF012170D8D139880029D5D0CEE700237B
:1024C0001A46314618460095FFF72FFA756CFDF74E
:1024D000E9FE2178491E2170FDF7E8FE5FEA0A4017
:1024E0001BD4FEF7FFF818E0FDF7E0FE15E0FDF75E
:1024F000D9FE2178491E11F0FF01217006D13988DB
:1025000021B1FDF7D3FEFFF7B9FB01E0FDF7CEFEE9
:1025100046F62D60A8F8000000252846A9E700002F
:1025200072000020C4000020440000202DE9F0418A
:102530000F460446FDF7B6FE244904B90C68096845
:10254000234D8C4206D1297821B1FDF7AFFE46F626
:10255000635038E00021398094F8361001260829AC
:102560002DD2DFE801F004171F212727272729781C
:10257000491C2970FDF79AFE042084F8360084F87F
:102580008A602046FFF750FBFDF78CFE2978491E34
:10259000297001E0052108E0FDF788FEBDE8F04163
:1025A000FEF7A0B8062100E0072184F8361084F871
:1025B0008A60F1E714F88A1F491C2170ECE7FDF7E7
:1025C00075FE46F62D603880BDE8F081C40000201D
:1025D0007200002010B500200146074C074B06E0B2
:1025E00004EBC002401C11609180D18080B21A8837
:1025F0009042F5D310BD0000A41C00202432000836
:10260000F0B5324C47F27E2625680024042A08D013
:10261000B1B32E4E082A36680E440BD0C0E91361C0
:1026200015E04A1B521E12F5803F2AD8521CC0E901
:1026300013120CE0826C0A44571B7F1E8F4201D29A
:10264000C26400E0C664C16C4A1B02658164204A12
:10265000C16C1288B1FBF2F602FB16111D4A89B259
:1026600002EBC102918889B11168F1B1CE6C761B81
:102670000E65076DB74212D94E6966B13146F5E76E
:10268000FFE7C4640465C4611E80F0BD44618461D9
:10269000012110600BE0C0E90541486105E08D694A
:1026A00075B1C0E90515686188619188491C918000
:1026B000D58889B28D4200D2D180C2611C80F0BD24
:1026C000C0E9051488611060EFE70000A800002051
:1026D00024320008A41C002010B5C269002A15D0BD
:1026E000002101651368834204D14369136033B14B
:1026F000996104E0D0E90534636103B19C614161F3
:102700008161C161C1649088401E908010BD00004D
:1027100010B500200446064B064A04E003EBC00156
:10272000401CCC8080B211888842F7D310BD0000D5
:10273000A41C0020243200082DE9F05FFDF7B2FD53
:10274000474D2978491C2970FDF7B0FDDFF8148149
:1027500000274549D8F80000B946401CC8F80000D9
:1027600009884FF0030AB0FBF1F201FB12003F4968
:1027700080B24FF0040B51F83040D4B394F83600D7
:10278000666908284FD2DFE800F04E044E114E274C
:102790004E35E06CD8F80010421A2265884244D1C8
:1027A00084F836902046FFF7BFFD3CE0E06CD8F897
:1027B0000010421A2265884237D1C4F85C90A4F810
:1027C00060902046C4F84090FFF781F82046FFF75C
:1027D000ABFD84F8369022E0E06CD8F80010421A85
:1027E0002265884221D184F836B02046FFF774FF75
:1027F00019E01AE0E06CD8F80010421A226588420D
:1028000013D1C4F85C90A4F860902046C4F84090BE
:10281000FFF75DF82046FFF75FFF84F836B084F8D5
:1028200035A084F834903446A7E7114978420A6805
:10283000824200D20860FDF735FD2978491E11F06B
:10284000FF01297008D10B49098829B1FDF72EFD38
:10285000BDE8F05FFFF712BABDE8F05FFDF726BDF7
:1028600072000020A800002024320008A41C0020D0
:10287000AC000020440000201CB5084C00216B4631
:1028800001AA0846FEF7CEF9BDF800000028F5D1F0
:1028900020780128F2D1FFF74FFFEFE73900002041
:1028A00030B504461A4889B000250560194805600E
:1028B000FFF790FE1848016841B11849184B0A68A3
:1028C0001B689A4205D247F2132008E047F2122013
:1028D00005E0144A13781F2B04D347F211202080FF
:1028E00009B030BD0B2305950695CDE907340E4B95
:1028F000096800681B68CDE90103CDE9031510786C
:1029000000900023094A0AA10E48FEF70DF8E7E7F8
:10291000A8000020AC000020183200082032000877
:102920000C320008143200081C3200087928000814
:1029300075432F4F532D494949205469636B2054E7
:1029400061736B008023002030B52A4A89B00021D2
:10295000294B1160294C2A4A1D681DB12468B4FB1B
:10296000F5F303E023680A24B3FBF4F313601A467B
:10297000244B274D274C1A60234A1160234A1160CB
:10298000002206E005EBC203521C9980D98092B266
:10299000196023889A42F5D31F4B1A6842B11F4A27
:1029A0001F4D14682D68AC4205D247F2483108E04B
:1029B00047F2473105E01B4C25781F2D04D347F221
:1029C0004631018009B030BD0B2505910691CDE956
:1029D00007501068144A1B681268CDE90301CDE95D
:1029E0000132207800900023104A11A11648FDF70B
:1029F0009BFFE7E7B00000202832000810320008F3
:102A0000BC000020C0000020B8000020B40000205E
:102A10002C1F0020383200082C3200083432000805
:102A20000C32000826320008303200080D2B000856
:102A300075432F4F532D4949492054696D657220C4
:102A40005461736B000000004024002070B5022226
:102A500080F82A20204A012914681ED0016AE1B1B9
:102A60001E4A214481611288B1FBF2F302FB13126A
:102A70001B4B92B203EBC202002315687DB1091B08
:102A8000C1611168D1B18D692D1BCD61C669AE429E
:102A90000ED90D6945B12946F5E7416AE0E70361C2
:102AA0004361106001200BE0C0E90431086105E0DA
:102AB0004C6964B1C0E90414206148619088401CED
:102AC0009080D18880B2814200D2D08070BDC0E9B0
:102AD000041348611060F1E7B800002038320008A4
:102AE0002C1F002010B500200446064B064A04E0C7
:102AF00003EBC001401CCC8080B211888842F7D320
:102B000010BD00002C1F0020383200081CB5DFF873
:102B10008890DFF888A0224DDFF888B000216B464E
:102B200001AA0846FEF77EF86846FDF719FE2868F8
:102B30000027401C2860B9F800104FF00308B0FBD4
:102B4000F1F201FB120080B25AF83040C4B1A06922
:102B500029682669884213D1204600F025F8208D87
:102B6000022808D084F82A80A26812B12046E168C1
:102B700090473446EAE701212046FFF767FFF3E775
:102B80007C426846FDF712FEDBF80010A142C5D278
:102B9000CBF80040C2E70000383200082C1F0020AC
:102BA000B8000020B400002010B5104A81691288D6
:102BB000B1FBF2F302FB13110D4A89B202EBC10221
:102BC000002314680169844203D1116029B14B616B
:102BD00003E04469216101B14C61012180F82A10B0
:102BE000036143619088401E908010BD3832000818
:102BF0002C1F002010B500F009F9FDF711FCBDE80D
:102C0000104000F0CDB90000044A0029916901D0BC
:102C1000014300E0814391617047000000100240D1
:102C20000149C86470470000000042420C48016836
:102C300041F00101016041680A4A114041600168A8
:102C4000094A11400160016821F480210160416856
:102C500021F4FE0141604FF41F01816070470000C4
:102C6000001002400000FFF8FFFFF6FE30B51F49DC
:102C70004A6812F00C031E4A03D0042B01D0082B23
:102C800021D002604A680F231A4C03EA1212A35C97
:102C90000268DA4042604B68072505EA1323E35CCB
:102CA00022FA03F383604B6805EAD323E35CDA403E
:102CB000C2604968032303EA9131231F595CB2FBC8
:102CC000F1F1016130BD4A684B6802F470124FF0B7
:102CD000020413F4803F04EB924202D04B689B0342
:102CE00001D5054B00E0024B5A43CAE700100240F1
:102CF00000127A000400002000093D000246002076
:102D000053090949012B0BD0022B0BD0D1F8241009
:102D100002F01F02012393400B4200D001207047B4
:102D20000968F5E7096AF3E70010024002484068C5
:102D300000F00C007047000000100240034A516888
:102D400021F0F00101435160704700000010024083
:102D50000B490A6822F480320A600A6822F4802251
:102D60000A60B0F5803F07D0B0F5802F03D1086826
:102D700040F4A02008607047086840F48030F9E70C
:102D800000100240034A516821F4E06101435160A0
:102D9000704700000010024003494A6822F4605264
:102DA00042EAC000486070470010024001490866CE
:102DB0007047000000004242034A5368084323F46E
:102DC0007C1318435060704700100240034A51685A
:102DD00021F00301014351607047000000100240E0
:102DE00018B500204FF4A06400903120FFF786FF53
:102DF0000099491C0091A14201D00028F5D0312052
:102E0000FFF77CFF002800D0012018BD10B5FFF7A8
:102E10000DFF4FF480342046FFF79AFFFFF7E0FFE5
:102E2000012823D11020FDF78FFA0220FDF798FA30
:102E30000020FFF783FF0020FFF7AEFFA011FFF790
:102E4000A1FF4FF4E0112046FFF7B6FF0120FFF786
:102E5000ADFF3920FFF752FF0028FAD00220FFF71C
:102E6000B5FF00BFFFF762FF0828FBD10120FFF785
:102E7000D7FE0648FFF7FAFE01210846FFF7C4FE19
:102E80000121BDE810403C20FFF7BEBED00000206D
:102E9000704700000CB5002126480191009102689E
:102EA00042F4803202604FF4A063026802F4003200
:102EB0000092019A521C0192009A12B9019A9A4208
:102EC000F3D10268920333D5012100911A490A68AF
:102ED00042F010020A600A6822F003020A600A68DF
:102EE00042F002020A604168416041684160416805
:102EF00041F480614160416821F47C114160416886
:102F000041F4E8114160016841F08071016001689D
:102F10008901FCD5416821F003014160416841F01D
:102F2000020141604168C1F381010229FAD10CBD5F
:102F300000910CBD001002400020024010B5FDF7CA
:102F400079FBFEF7A3F8BDE81040FDF783BB000056
:102F50000F4810B5016841F00101016041680D4A58
:102F60001140416001680C4A11400160016821F480
:102F700080210160416821F4FE0141604FF41F018E
:102F80008160FFF787FF05494FF00060086010BDC2
:102F9000001002400000FFF8FFFFF6FE08ED00E021
:102FA00070B505218D1F2846FDF765FA0B484FF4D3
:102FB0007A714068B0FBF1F1491EB1F1807F0BD20C
:102FC0004FF0E02461610F212846FDF754FA0020FC
:102FD000A0610720206170BDFEE70000D000002046
:102FE0000EB50F4F002502AC4FF400560022CDE97C
:102FF0000054642311461046FDF7A6FF31463846BB
:10300000FDF70BFA0022CDE9005464231146104667
:10301000FDF79AFF31463846FDF7FDF9E6E7000077
:10302000001001400EB50F4F002502AC4FF4804652
:103030000022CDE90054C82311461046FDF784FF55
:1030400031463846FDF7E9F90022CDE90054C8239E
:1030500011461046FDF778FF31463846FDF7DBF99B
:10306000E6E70000000C01400EB5DFF840800025C7
:1030700002AC4FF496764FF400470022CDE900549D
:10308000334611461046FDF75FFF39464046FDF7CF
:10309000C4F90022CDE90054334611461046FDF72D
:1030A00053FF39464046FDF7B6F9E6E7000C01400C
:1030B0002DE9F0418AB000240326CDE9064609AD8A
:1030C0004FF00C081D490895059404208DE8030174
:1030D00080271A48CDE903742346194A19A1C0383C
:1030E000FDF722FCCDE90646184908950594052010
:1030F0008DE803011548CDE903740023144A15A196
:10310000C038FDF711FCCDE9064614490895059431
:1031100006208DE803011148CDE903740023104A0D
:1031200010A1C038FDF700FCFFF764FD09A90F48A6
:10313000FDF7DCFC0AB0BDE8F0810000A40300202C
:10314000E12F00084C4544310000000064060020D7
:10315000253000084C4544320000000024090020BE
:10316000693000084C45443300000000E4000020B2
:10317000FEE7000000B58BB009A8FDF795F9002027
:1031800009A9032205900690CDE9072108220292A1
:103190005021CDE90310084B0120CDE9000306487A
:1031A0000023064A06A1C038FDF7BEFB09A8FDF7BB
:1031B0002DFB0BB0002000BDA4010020B1300008A1
:1031C0005374617274000000240B00200C00000096
:1031D00080000000240D00200A000000640E002082
:1031E0000C0000008000000064100020800000003F
:1031F00064000000641200200B0000000A000000C0
:10320000A41800200C000000800000004000000016
:10321000E80300000A000000A41A00200C000000CF
:103220008000000011000B000A0000002C1D00208F
:103230000C00000080000000110000005C3200085B
:1032400000000020D00000006C0100082C330008B2
:10325000D0000020902A000088010008020406081F
:10326000000000000102030401020304060708092C
:10327000000000000000000000000000000000004E
:10328000000000000000000000000000000000003E
:10329000000000000000000000000000000000002E
:1032A000000000000000000000000000000000001E
:1032B000000000000000000000000000000000000E
:1032C00000000000000000000000000000000000FE
:1032D00000000000000000000000000000000000EE
:1032E00000000000000000000000000000000000DE
:1032F00000000000000000000000000000000000CE
:1033000000000000000000000000000000000000BD
:1033100000000000000000000000000000000000AD
:0C332000000000000000000000000000A1
:0400000508000131BD
:00000001FF
